{
    "_format": "hh-sol-artifact-1",
    "contractName": "HydroWhales",
    "sourceName": "contracts/HydroWhales.sol",
    "abi": [
        {
            "inputs": [
                {
                    "internalType": "string",
                    "name": "_tokenName",
                    "type": "string"
                },
                {
                    "internalType": "string",
                    "name": "_tokenSymbol",
                    "type": "string"
                },
                {
                    "internalType": "uint256",
                    "name": "_cost",
                    "type": "uint256"
                },
                {
                    "internalType": "uint256",
                    "name": "_maxSupply",
                    "type": "uint256"
                },
                {
                    "internalType": "uint256",
                    "name": "_maxMintAmountPerTx",
                    "type": "uint256"
                },
                {
                    "internalType": "string",
                    "name": "_hiddenMetadataUri",
                    "type": "string"
                }
            ],
            "stateMutability": "nonpayable",
            "type": "constructor"
        },
        {
            "inputs": [],
            "name": "ApprovalCallerNotOwnerNorApproved",
            "type": "error"
        },
        {
            "inputs": [],
            "name": "ApprovalQueryForNonexistentToken",
            "type": "error"
        },
        {
            "inputs": [],
            "name": "ApprovalToCurrentOwner",
            "type": "error"
        },
        {
            "inputs": [],
            "name": "ApproveToCaller",
            "type": "error"
        },
        {
            "inputs": [],
            "name": "BalanceQueryForZeroAddress",
            "type": "error"
        },
        {
            "inputs": [],
            "name": "MintToZeroAddress",
            "type": "error"
        },
        {
            "inputs": [],
            "name": "MintZeroQuantity",
            "type": "error"
        },
        {
            "inputs": [],
            "name": "OwnerQueryForNonexistentToken",
            "type": "error"
        },
        {
            "inputs": [],
            "name": "TransferCallerNotOwnerNorApproved",
            "type": "error"
        },
        {
            "inputs": [],
            "name": "TransferFromIncorrectOwner",
            "type": "error"
        },
        {
            "inputs": [],
            "name": "TransferToNonERC721ReceiverImplementer",
            "type": "error"
        },
        {
            "inputs": [],
            "name": "TransferToZeroAddress",
            "type": "error"
        },
        {
            "anonymous": false,
            "inputs": [
                {
                    "indexed": true,
                    "internalType": "address",
                    "name": "owner",
                    "type": "address"
                },
                {
                    "indexed": true,
                    "internalType": "address",
                    "name": "approved",
                    "type": "address"
                },
                {
                    "indexed": true,
                    "internalType": "uint256",
                    "name": "tokenId",
                    "type": "uint256"
                }
            ],
            "name": "Approval",
            "type": "event"
        },
        {
            "anonymous": false,
            "inputs": [
                {
                    "indexed": true,
                    "internalType": "address",
                    "name": "owner",
                    "type": "address"
                },
                {
                    "indexed": true,
                    "internalType": "address",
                    "name": "operator",
                    "type": "address"
                },
                {
                    "indexed": false,
                    "internalType": "bool",
                    "name": "approved",
                    "type": "bool"
                }
            ],
            "name": "ApprovalForAll",
            "type": "event"
        },
        {
            "anonymous": false,
            "inputs": [
                {
                    "indexed": true,
                    "internalType": "address",
                    "name": "previousOwner",
                    "type": "address"
                },
                {
                    "indexed": true,
                    "internalType": "address",
                    "name": "newOwner",
                    "type": "address"
                }
            ],
            "name": "OwnershipTransferred",
            "type": "event"
        },
        {
            "anonymous": false,
            "inputs": [
                {
                    "indexed": true,
                    "internalType": "address",
                    "name": "from",
                    "type": "address"
                },
                {
                    "indexed": true,
                    "internalType": "address",
                    "name": "to",
                    "type": "address"
                },
                {
                    "indexed": true,
                    "internalType": "uint256",
                    "name": "tokenId",
                    "type": "uint256"
                }
            ],
            "name": "Transfer",
            "type": "event"
        },
        {
            "inputs": [
                {
                    "internalType": "address",
                    "name": "to",
                    "type": "address"
                },
                {
                    "internalType": "uint256",
                    "name": "tokenId",
                    "type": "uint256"
                }
            ],
            "name": "approve",
            "outputs": [],
            "stateMutability": "nonpayable",
            "type": "function"
        },
        {
            "inputs": [
                {
                    "internalType": "address",
                    "name": "owner",
                    "type": "address"
                }
            ],
            "name": "balanceOf",
            "outputs": [
                {
                    "internalType": "uint256",
                    "name": "",
                    "type": "uint256"
                }
            ],
            "stateMutability": "view",
            "type": "function"
        },
        {
            "inputs": [],
            "name": "cost",
            "outputs": [
                {
                    "internalType": "uint256",
                    "name": "",
                    "type": "uint256"
                }
            ],
            "stateMutability": "view",
            "type": "function"
        },
        {
            "inputs": [
                {
                    "internalType": "uint256",
                    "name": "tokenId",
                    "type": "uint256"
                }
            ],
            "name": "getApproved",
            "outputs": [
                {
                    "internalType": "address",
                    "name": "",
                    "type": "address"
                }
            ],
            "stateMutability": "view",
            "type": "function"
        },
        {
            "inputs": [],
            "name": "hiddenMetadataUri",
            "outputs": [
                {
                    "internalType": "string",
                    "name": "",
                    "type": "string"
                }
            ],
            "stateMutability": "view",
            "type": "function"
        },
        {
            "inputs": [
                {
                    "internalType": "address",
                    "name": "owner",
                    "type": "address"
                },
                {
                    "internalType": "address",
                    "name": "operator",
                    "type": "address"
                }
            ],
            "name": "isApprovedForAll",
            "outputs": [
                {
                    "internalType": "bool",
                    "name": "",
                    "type": "bool"
                }
            ],
            "stateMutability": "view",
            "type": "function"
        },
        {
            "inputs": [],
            "name": "maxMintAmountPerTx",
            "outputs": [
                {
                    "internalType": "uint256",
                    "name": "",
                    "type": "uint256"
                }
            ],
            "stateMutability": "view",
            "type": "function"
        },
        {
            "inputs": [],
            "name": "maxSupply",
            "outputs": [
                {
                    "internalType": "uint256",
                    "name": "",
                    "type": "uint256"
                }
            ],
            "stateMutability": "view",
            "type": "function"
        },
        {
            "inputs": [],
            "name": "merkleRoot",
            "outputs": [
                {
                    "internalType": "bytes32",
                    "name": "",
                    "type": "bytes32"
                }
            ],
            "stateMutability": "view",
            "type": "function"
        },
        {
            "inputs": [
                {
                    "internalType": "uint256",
                    "name": "_mintAmount",
                    "type": "uint256"
                }
            ],
            "name": "mint",
            "outputs": [],
            "stateMutability": "payable",
            "type": "function"
        },
        {
            "inputs": [
                {
                    "internalType": "uint256",
                    "name": "_mintAmount",
                    "type": "uint256"
                },
                {
                    "internalType": "address",
                    "name": "_receiver",
                    "type": "address"
                }
            ],
            "name": "mintForAddress",
            "outputs": [],
            "stateMutability": "nonpayable",
            "type": "function"
        },
        {
            "inputs": [],
            "name": "name",
            "outputs": [
                {
                    "internalType": "string",
                    "name": "",
                    "type": "string"
                }
            ],
            "stateMutability": "view",
            "type": "function"
        },
        {
            "inputs": [],
            "name": "owner",
            "outputs": [
                {
                    "internalType": "address",
                    "name": "",
                    "type": "address"
                }
            ],
            "stateMutability": "view",
            "type": "function"
        },
        {
            "inputs": [
                {
                    "internalType": "uint256",
                    "name": "tokenId",
                    "type": "uint256"
                }
            ],
            "name": "ownerOf",
            "outputs": [
                {
                    "internalType": "address",
                    "name": "",
                    "type": "address"
                }
            ],
            "stateMutability": "view",
            "type": "function"
        },
        {
            "inputs": [],
            "name": "paused",
            "outputs": [
                {
                    "internalType": "bool",
                    "name": "",
                    "type": "bool"
                }
            ],
            "stateMutability": "view",
            "type": "function"
        },
        {
            "inputs": [],
            "name": "renounceOwnership",
            "outputs": [],
            "stateMutability": "nonpayable",
            "type": "function"
        },
        {
            "inputs": [],
            "name": "revealed",
            "outputs": [
                {
                    "internalType": "bool",
                    "name": "",
                    "type": "bool"
                }
            ],
            "stateMutability": "view",
            "type": "function"
        },
        {
            "inputs": [
                {
                    "internalType": "address",
                    "name": "from",
                    "type": "address"
                },
                {
                    "internalType": "address",
                    "name": "to",
                    "type": "address"
                },
                {
                    "internalType": "uint256",
                    "name": "tokenId",
                    "type": "uint256"
                }
            ],
            "name": "safeTransferFrom",
            "outputs": [],
            "stateMutability": "nonpayable",
            "type": "function"
        },
        {
            "inputs": [
                {
                    "internalType": "address",
                    "name": "from",
                    "type": "address"
                },
                {
                    "internalType": "address",
                    "name": "to",
                    "type": "address"
                },
                {
                    "internalType": "uint256",
                    "name": "tokenId",
                    "type": "uint256"
                },
                {
                    "internalType": "bytes",
                    "name": "_data",
                    "type": "bytes"
                }
            ],
            "name": "safeTransferFrom",
            "outputs": [],
            "stateMutability": "nonpayable",
            "type": "function"
        },
        {
            "inputs": [
                {
                    "internalType": "address",
                    "name": "operator",
                    "type": "address"
                },
                {
                    "internalType": "bool",
                    "name": "approved",
                    "type": "bool"
                }
            ],
            "name": "setApprovalForAll",
            "outputs": [],
            "stateMutability": "nonpayable",
            "type": "function"
        },
        {
            "inputs": [
                {
                    "internalType": "uint256",
                    "name": "_cost",
                    "type": "uint256"
                }
            ],
            "name": "setCost",
            "outputs": [],
            "stateMutability": "nonpayable",
            "type": "function"
        },
        {
            "inputs": [
                {
                    "internalType": "string",
                    "name": "_hiddenMetadataUri",
                    "type": "string"
                }
            ],
            "name": "setHiddenMetadataUri",
            "outputs": [],
            "stateMutability": "nonpayable",
            "type": "function"
        },
        {
            "inputs": [
                {
                    "internalType": "uint256",
                    "name": "_maxMintAmountPerTx",
                    "type": "uint256"
                }
            ],
            "name": "setMaxMintAmountPerTx",
            "outputs": [],
            "stateMutability": "nonpayable",
            "type": "function"
        },
        {
            "inputs": [
                {
                    "internalType": "bytes32",
                    "name": "_merkleRoot",
                    "type": "bytes32"
                }
            ],
            "name": "setMerkleRoot",
            "outputs": [],
            "stateMutability": "nonpayable",
            "type": "function"
        },
        {
            "inputs": [
                {
                    "internalType": "bool",
                    "name": "_state",
                    "type": "bool"
                }
            ],
            "name": "setPaused",
            "outputs": [],
            "stateMutability": "nonpayable",
            "type": "function"
        },
        {
            "inputs": [
                {
                    "internalType": "bool",
                    "name": "_state",
                    "type": "bool"
                }
            ],
            "name": "setRevealed",
            "outputs": [],
            "stateMutability": "nonpayable",
            "type": "function"
        },
        {
            "inputs": [
                {
                    "internalType": "string",
                    "name": "_uriPrefix",
                    "type": "string"
                }
            ],
            "name": "setUriPrefix",
            "outputs": [],
            "stateMutability": "nonpayable",
            "type": "function"
        },
        {
            "inputs": [
                {
                    "internalType": "string",
                    "name": "_uriSuffix",
                    "type": "string"
                }
            ],
            "name": "setUriSuffix",
            "outputs": [],
            "stateMutability": "nonpayable",
            "type": "function"
        },
        {
            "inputs": [
                {
                    "internalType": "bool",
                    "name": "_state",
                    "type": "bool"
                }
            ],
            "name": "setWhitelistMintEnabled",
            "outputs": [],
            "stateMutability": "nonpayable",
            "type": "function"
        },
        {
            "inputs": [
                {
                    "internalType": "bytes4",
                    "name": "interfaceId",
                    "type": "bytes4"
                }
            ],
            "name": "supportsInterface",
            "outputs": [
                {
                    "internalType": "bool",
                    "name": "",
                    "type": "bool"
                }
            ],
            "stateMutability": "view",
            "type": "function"
        },
        {
            "inputs": [],
            "name": "symbol",
            "outputs": [
                {
                    "internalType": "string",
                    "name": "",
                    "type": "string"
                }
            ],
            "stateMutability": "view",
            "type": "function"
        },
        {
            "inputs": [
                {
                    "internalType": "uint256",
                    "name": "_tokenId",
                    "type": "uint256"
                }
            ],
            "name": "tokenURI",
            "outputs": [
                {
                    "internalType": "string",
                    "name": "",
                    "type": "string"
                }
            ],
            "stateMutability": "view",
            "type": "function"
        },
        {
            "inputs": [],
            "name": "totalSupply",
            "outputs": [
                {
                    "internalType": "uint256",
                    "name": "",
                    "type": "uint256"
                }
            ],
            "stateMutability": "view",
            "type": "function"
        },
        {
            "inputs": [
                {
                    "internalType": "address",
                    "name": "from",
                    "type": "address"
                },
                {
                    "internalType": "address",
                    "name": "to",
                    "type": "address"
                },
                {
                    "internalType": "uint256",
                    "name": "tokenId",
                    "type": "uint256"
                }
            ],
            "name": "transferFrom",
            "outputs": [],
            "stateMutability": "nonpayable",
            "type": "function"
        },
        {
            "inputs": [
                {
                    "internalType": "address",
                    "name": "newOwner",
                    "type": "address"
                }
            ],
            "name": "transferOwnership",
            "outputs": [],
            "stateMutability": "nonpayable",
            "type": "function"
        },
        {
            "inputs": [],
            "name": "uriPrefix",
            "outputs": [
                {
                    "internalType": "string",
                    "name": "",
                    "type": "string"
                }
            ],
            "stateMutability": "view",
            "type": "function"
        },
        {
            "inputs": [],
            "name": "uriSuffix",
            "outputs": [
                {
                    "internalType": "string",
                    "name": "",
                    "type": "string"
                }
            ],
            "stateMutability": "view",
            "type": "function"
        },
        {
            "inputs": [
                {
                    "internalType": "address",
                    "name": "_owner",
                    "type": "address"
                }
            ],
            "name": "walletOfOwner",
            "outputs": [
                {
                    "internalType": "uint256[]",
                    "name": "",
                    "type": "uint256[]"
                }
            ],
            "stateMutability": "view",
            "type": "function"
        },
        {
            "inputs": [
                {
                    "internalType": "address",
                    "name": "",
                    "type": "address"
                }
            ],
            "name": "whitelistClaimed",
            "outputs": [
                {
                    "internalType": "bool",
                    "name": "",
                    "type": "bool"
                }
            ],
            "stateMutability": "view",
            "type": "function"
        },
        {
            "inputs": [
                {
                    "internalType": "uint256",
                    "name": "_mintAmount",
                    "type": "uint256"
                },
                {
                    "internalType": "bytes32[]",
                    "name": "_merkleProof",
                    "type": "bytes32[]"
                }
            ],
            "name": "whitelistMint",
            "outputs": [],
            "stateMutability": "payable",
            "type": "function"
        },
        {
            "inputs": [],
            "name": "whitelistMintEnabled",
            "outputs": [
                {
                    "internalType": "bool",
                    "name": "",
                    "type": "bool"
                }
            ],
            "stateMutability": "view",
            "type": "function"
        },
        {
            "inputs": [],
            "name": "withdraw",
            "outputs": [],
            "stateMutability": "nonpayable",
            "type": "function"
        }
    ],
    "bytecode": "0x60a06040819052600060808190526200001b91600c91620001c1565b5060408051808201909152600580825264173539b7b760d91b60209092019182526200004a91600d91620001c1565b506012805462ffffff191660011790553480156200006757600080fd5b5060405162002aff38038062002aff8339810160408190526200008a9162000334565b855186908690620000a3906002906020850190620001c1565b508051620000b9906003906020840190620001c1565b5050600160005550620000cc33620000f7565b6001600955600f84905560108390556011829055620000eb8162000149565b5050505050506200041e565b600880546001600160a01b038381166001600160a01b0319831681179093556040519116919082907f8be0079c531659141344cd1fd0a4f28419497f9722a3daafe3b4186f6b6457e090600090a35050565b6008546001600160a01b03163314620001a85760405162461bcd60e51b815260206004820181905260248201527f4f776e61626c653a2063616c6c6572206973206e6f7420746865206f776e6572604482015260640160405180910390fd5b8051620001bd90600e906020840190620001c1565b5050565b828054620001cf90620003e1565b90600052602060002090601f016020900481019282620001f357600085556200023e565b82601f106200020e57805160ff19168380011785556200023e565b828001600101855582156200023e579182015b828111156200023e57825182559160200191906001019062000221565b506200024c92915062000250565b5090565b5b808211156200024c576000815560010162000251565b634e487b7160e01b600052604160045260246000fd5b600082601f8301126200028f57600080fd5b81516001600160401b0380821115620002ac57620002ac62000267565b604051601f8301601f19908116603f01168101908282118183101715620002d757620002d762000267565b81604052838152602092508683858801011115620002f457600080fd5b600091505b83821015620003185785820183015181830184015290820190620002f9565b838211156200032a5760008385830101525b9695505050505050565b60008060008060008060c087890312156200034e57600080fd5b86516001600160401b03808211156200036657600080fd5b620003748a838b016200027d565b975060208901519150808211156200038b57600080fd5b620003998a838b016200027d565b965060408901519550606089015194506080890151935060a0890151915080821115620003c557600080fd5b50620003d489828a016200027d565b9150509295509295509295565b600181811c90821680620003f657607f821691505b602082108114156200041857634e487b7160e01b600052602260045260246000fd5b50919050565b6126d1806200042e6000396000f3fe6080604052600436106102515760003560e01c806370a0823111610139578063b071401b116100b6578063d5abeb011161007a578063d5abeb011461069d578063db4bec44146106b3578063e0a80853146106e3578063e985e9c514610703578063efbd73f41461074c578063f2fde38b1461076c57600080fd5b8063b071401b1461060a578063b767a0981461062a578063b88d4fde1461064a578063c87b56dd1461066a578063d2cab0561461068a57600080fd5b806394354fd0116100fd57806394354fd01461059757806395d89b41146105ad578063a0712d68146105c2578063a22cb465146105d5578063a45ba8e7146105f557600080fd5b806370a0823114610504578063715018a6146105245780637cb64759146105395780637ec4a659146105595780638da5cb5b1461057957600080fd5b80633ccfd60b116101d2578063518302271161019657806351830227146104615780635503a0e8146104815780635c975abb1461049657806362b99ad4146104b05780636352211e146104c55780636caede3d146104e557600080fd5b80633ccfd60b146103bf57806342842e0e146103d4578063438b6300146103f457806344a0d68a146104215780634fdd43cb1461044157600080fd5b806316ba10e01161021957806316ba10e01461032b57806316c38b3c1461034b57806318160ddd1461036b57806323b872dd146103895780632eb4a7ab146103a957600080fd5b806301ffc9a71461025657806306fdde031461028b578063081812fc146102ad578063095ea7b3146102e557806313faede614610307575b600080fd5b34801561026257600080fd5b50610276610271366004611fe5565b61078c565b60405190151581526020015b60405180910390f35b34801561029757600080fd5b506102a06107de565b604051610282919061205a565b3480156102b957600080fd5b506102cd6102c836600461206d565b610870565b6040516001600160a01b039091168152602001610282565b3480156102f157600080fd5b506103056103003660046120a2565b6108b4565b005b34801561031357600080fd5b5061031d600f5481565b604051908152602001610282565b34801561033757600080fd5b50610305610346366004612157565b610942565b34801561035757600080fd5b506103056103663660046121af565b61098c565b34801561037757600080fd5b5061031d600154600054036000190190565b34801561039557600080fd5b506103056103a43660046121ca565b6109c9565b3480156103b557600080fd5b5061031d600a5481565b3480156103cb57600080fd5b506103056109d4565b3480156103e057600080fd5b506103056103ef3660046121ca565b610acf565b34801561040057600080fd5b5061041461040f366004612206565b610aea565b6040516102829190612221565b34801561042d57600080fd5b5061030561043c36600461206d565b610c31565b34801561044d57600080fd5b5061030561045c366004612157565b610c60565b34801561046d57600080fd5b506012546102769062010000900460ff1681565b34801561048d57600080fd5b506102a0610c9d565b3480156104a257600080fd5b506012546102769060ff1681565b3480156104bc57600080fd5b506102a0610d2b565b3480156104d157600080fd5b506102cd6104e036600461206d565b610d38565b3480156104f157600080fd5b5060125461027690610100900460ff1681565b34801561051057600080fd5b5061031d61051f366004612206565b610d4a565b34801561053057600080fd5b50610305610d98565b34801561054557600080fd5b5061030561055436600461206d565b610dce565b34801561056557600080fd5b50610305610574366004612157565b610dfd565b34801561058557600080fd5b506008546001600160a01b03166102cd565b3480156105a357600080fd5b5061031d60115481565b3480156105b957600080fd5b506102a0610e3a565b6103056105d036600461206d565b610e49565b3480156105e157600080fd5b506103056105f0366004612265565b610fb1565b34801561060157600080fd5b506102a0611047565b34801561061657600080fd5b5061030561062536600461206d565b611054565b34801561063657600080fd5b506103056106453660046121af565b611083565b34801561065657600080fd5b50610305610665366004612298565b6110c7565b34801561067657600080fd5b506102a061068536600461206d565b611118565b610305610698366004612313565b611288565b3480156106a957600080fd5b5061031d60105481565b3480156106bf57600080fd5b506102766106ce366004612206565b600b6020526000908152604090205460ff1681565b3480156106ef57600080fd5b506103056106fe3660046121af565b611534565b34801561070f57600080fd5b5061027661071e366004612391565b6001600160a01b03918216600090815260076020908152604080832093909416825291909152205460ff1690565b34801561075857600080fd5b506103056107673660046123bb565b61157a565b34801561077857600080fd5b50610305610787366004612206565b61161a565b60006001600160e01b031982166380ac58cd60e01b14806107bd57506001600160e01b03198216635b5e139f60e01b145b806107d857506301ffc9a760e01b6001600160e01b03198316145b92915050565b6060600280546107ed906123de565b80601f0160208091040260200160405190810160405280929190818152602001828054610819906123de565b80156108665780601f1061083b57610100808354040283529160200191610866565b820191906000526020600020905b81548152906001019060200180831161084957829003601f168201915b5050505050905090565b600061087b826116b5565b610898576040516333d1c03960e21b815260040160405180910390fd5b506000908152600660205260409020546001600160a01b031690565b60006108bf82610d38565b9050806001600160a01b0316836001600160a01b031614156108f45760405163250fdee360e21b815260040160405180910390fd5b336001600160a01b038216148015906109145750610912813361071e565b155b15610932576040516367d9dca160e11b815260040160405180910390fd5b61093d8383836116ee565b505050565b6008546001600160a01b031633146109755760405162461bcd60e51b815260040161096c90612419565b60405180910390fd5b805161098890600d906020840190611f36565b5050565b6008546001600160a01b031633146109b65760405162461bcd60e51b815260040161096c90612419565b6012805460ff1916911515919091179055565b61093d83838361174a565b6008546001600160a01b031633146109fe5760405162461bcd60e51b815260040161096c90612419565b60026009541415610a515760405162461bcd60e51b815260206004820152601f60248201527f5265656e7472616e637947756172643a207265656e7472616e742063616c6c00604482015260640161096c565b60026009556000610a6a6008546001600160a01b031690565b6001600160a01b03164760405160006040518083038185875af1925050503d8060008114610ab4576040519150601f19603f3d011682016040523d82523d6000602084013e610ab9565b606091505b5050905080610ac757600080fd5b506001600955565b61093d838383604051806020016040528060008152506110c7565b60606000610af783610d4a565b90506000816001600160401b03811115610b1357610b136120cc565b604051908082528060200260200182016040528015610b3c578160200160208202803683370190505b50905060016000805b8482108015610b5657506010548311155b15610c2657600083815260046020908152604091829020825160608101845290546001600160a01b0381168252600160a01b81046001600160401b031692820192909252600160e01b90910460ff161580159282018390529091610bc3575080516001600160a01b031615155b15610bcd57805191505b876001600160a01b0316826001600160a01b03161415610c135783858481518110610bfa57610bfa61244e565b602090810291909101015282610c0f8161247a565b9350505b83610c1d8161247a565b94505050610b45565b509195945050505050565b6008546001600160a01b03163314610c5b5760405162461bcd60e51b815260040161096c90612419565b600f55565b6008546001600160a01b03163314610c8a5760405162461bcd60e51b815260040161096c90612419565b805161098890600e906020840190611f36565b600d8054610caa906123de565b80601f0160208091040260200160405190810160405280929190818152602001828054610cd6906123de565b8015610d235780601f10610cf857610100808354040283529160200191610d23565b820191906000526020600020905b815481529060010190602001808311610d0657829003601f168201915b505050505081565b600c8054610caa906123de565b6000610d4382611938565b5192915050565b60006001600160a01b038216610d73576040516323d3ad8160e21b815260040160405180910390fd5b506001600160a01b03166000908152600560205260409020546001600160401b031690565b6008546001600160a01b03163314610dc25760405162461bcd60e51b815260040161096c90612419565b610dcc6000611a5f565b565b6008546001600160a01b03163314610df85760405162461bcd60e51b815260040161096c90612419565b600a55565b6008546001600160a01b03163314610e275760405162461bcd60e51b815260040161096c90612419565b805161098890600c906020840190611f36565b6060600380546107ed906123de565b80600081118015610e5c57506011548111155b610e785760405162461bcd60e51b815260040161096c90612495565b60105481610e8d600154600054036000190190565b610e9791906124c3565b1115610eb55760405162461bcd60e51b815260040161096c906124db565b8180600f54610ec49190612509565b341015610f095760405162461bcd60e51b8152602060048201526013602482015272496e73756666696369656e742066756e64732160681b604482015260640161096c565b60125460ff1615610f5c5760405162461bcd60e51b815260206004820152601760248201527f54686520636f6e74726163742069732070617573656421000000000000000000604482015260640161096c565b6009610f6733610d4a565b10610fa75760405162461bcd60e51b815260206004820152601060248201526f043616e206f6e6c79204d696e742031360841b604482015260640161096c565b61093d3384611ab1565b6001600160a01b038216331415610fdb5760405163b06307db60e01b815260040160405180910390fd5b3360008181526007602090815260408083206001600160a01b03871680855290835292819020805460ff191686151590811790915590519081529192917f17307eab39ab6107e8899845ad3d59bd9653f200f220920489ca2b5937696c31910160405180910390a35050565b600e8054610caa906123de565b6008546001600160a01b0316331461107e5760405162461bcd60e51b815260040161096c90612419565b601155565b6008546001600160a01b031633146110ad5760405162461bcd60e51b815260040161096c90612419565b601280549115156101000261ff0019909216919091179055565b6110d284848461174a565b6001600160a01b0383163b151580156110f457506110f284848484611acb565b155b15611112576040516368d2bf6b60e11b815260040160405180910390fd5b50505050565b6060611123826116b5565b6111875760405162461bcd60e51b815260206004820152602f60248201527f4552433732314d657461646174613a2055524920717565727920666f72206e6f60448201526e3732bc34b9ba32b73a103a37b5b2b760891b606482015260840161096c565b60125462010000900460ff1661122957600e80546111a4906123de565b80601f01602080910402602001604051908101604052809291908181526020018280546111d0906123de565b801561121d5780601f106111f25761010080835404028352916020019161121d565b820191906000526020600020905b81548152906001019060200180831161120057829003601f168201915b50505050509050919050565b6000611233611bc3565b905060008151116112535760405180602001604052806000815250611281565b8061125d84611bd2565b600d60405160200161127193929190612528565b6040516020818303038152906040525b9392505050565b8260008111801561129b57506011548111155b6112b75760405162461bcd60e51b815260040161096c90612495565b601054816112cc600154600054036000190190565b6112d691906124c3565b11156112f45760405162461bcd60e51b815260040161096c906124db565b8380600f546113039190612509565b3410156113485760405162461bcd60e51b8152602060048201526013602482015272496e73756666696369656e742066756e64732160681b604482015260640161096c565b601254610100900460ff166113aa5760405162461bcd60e51b815260206004820152602260248201527f5468652077686974656c6973742073616c65206973206e6f7420656e61626c65604482015261642160f01b606482015260840161096c565b336000908152600b602052604090205460ff161561140a5760405162461bcd60e51b815260206004820152601860248201527f4164647265737320616c726561647920636c61696d6564210000000000000000604482015260640161096c565b6040516bffffffffffffffffffffffff193360601b16602082015260009060340160405160208183030381529060405280519060200120905061148485858080602002602001604051908101604052809392919081815260200183836020028082843760009201919091525050600a549150849050611ccf565b6114c15760405162461bcd60e51b815260206004820152600e60248201526d496e76616c69642070726f6f662160901b604482015260640161096c565b60046114cc33610d4a565b1061150b5760405162461bcd60e51b815260206004820152600f60248201526e43616e206f6e6c79204d696e74203560881b604482015260640161096c565b336000818152600b60205260409020805460ff1916905561152c9087611ab1565b505050505050565b6008546001600160a01b0316331461155e5760405162461bcd60e51b815260040161096c90612419565b60128054911515620100000262ff000019909216919091179055565b8160008111801561158d57506011548111155b6115a95760405162461bcd60e51b815260040161096c90612495565b601054816115be600154600054036000190190565b6115c891906124c3565b11156115e65760405162461bcd60e51b815260040161096c906124db565b6008546001600160a01b031633146116105760405162461bcd60e51b815260040161096c90612419565b61093d8284611ab1565b6008546001600160a01b031633146116445760405162461bcd60e51b815260040161096c90612419565b6001600160a01b0381166116a95760405162461bcd60e51b815260206004820152602660248201527f4f776e61626c653a206e6577206f776e657220697320746865207a65726f206160448201526564647265737360d01b606482015260840161096c565b6116b281611a5f565b50565b6000816001111580156116c9575060005482105b80156107d8575050600090815260046020526040902054600160e01b900460ff161590565b60008281526006602052604080822080546001600160a01b0319166001600160a01b0387811691821790925591518593918516917f8c5be1e5ebec7d5bd14f71427d1e84f3dd0314c0f7b2291e5b200ac8c7c3b92591a4505050565b600061175582611938565b9050836001600160a01b031681600001516001600160a01b03161461178c5760405162a1148160e81b815260040160405180910390fd5b6000336001600160a01b03861614806117aa57506117aa853361071e565b806117c55750336117ba84610870565b6001600160a01b0316145b9050806117e557604051632ce44b5f60e11b815260040160405180910390fd5b6001600160a01b03841661180c57604051633a954ecd60e21b815260040160405180910390fd5b611818600084876116ee565b6001600160a01b038581166000908152600560209081526040808320805467ffffffffffffffff198082166001600160401b0392831660001901831617909255898616808652838620805493841693831660019081018416949094179055898652600490945282852080546001600160e01b031916909417600160a01b429092169190910217835587018084529220805491939091166118ec5760005482146118ec57805460208601516001600160401b0316600160a01b026001600160e01b03199091166001600160a01b038a16171781555b50505082846001600160a01b0316866001600160a01b03167fddf252ad1be2c89b69c2b068fc378daa952ba7f163c4a11628f55a4df523b3ef60405160405180910390a45b5050505050565b60408051606081018252600080825260208201819052918101919091528180600111158015611968575060005481105b15611a4657600081815260046020908152604091829020825160608101845290546001600160a01b0381168252600160a01b81046001600160401b031692820192909252600160e01b90910460ff16151591810182905290611a445780516001600160a01b0316156119db579392505050565b5060001901600081815260046020908152604091829020825160608101845290546001600160a01b038116808352600160a01b82046001600160401b031693830193909352600160e01b900460ff1615159281019290925215611a3f579392505050565b6119db565b505b604051636f96cda160e11b815260040160405180910390fd5b600880546001600160a01b038381166001600160a01b0319831681179093556040519116919082907f8be0079c531659141344cd1fd0a4f28419497f9722a3daafe3b4186f6b6457e090600090a35050565b610988828260405180602001604052806000815250611ce5565b604051630a85bd0160e11b81526000906001600160a01b0385169063150b7a0290611b009033908990889088906004016125ec565b602060405180830381600087803b158015611b1a57600080fd5b505af1925050508015611b4a575060408051601f3d908101601f19168201909252611b4791810190612629565b60015b611ba5573d808015611b78576040519150601f19603f3d011682016040523d82523d6000602084013e611b7d565b606091505b508051611b9d576040516368d2bf6b60e11b815260040160405180910390fd5b805181602001fd5b6001600160e01b031916630a85bd0160e11b1490505b949350505050565b6060600c80546107ed906123de565b606081611bf65750506040805180820190915260018152600360fc1b602082015290565b8160005b8115611c205780611c0a8161247a565b9150611c199050600a8361265c565b9150611bfa565b6000816001600160401b03811115611c3a57611c3a6120cc565b6040519080825280601f01601f191660200182016040528015611c64576020820181803683370190505b5090505b8415611bbb57611c79600183612670565b9150611c86600a86612687565b611c919060306124c3565b60f81b818381518110611ca657611ca661244e565b60200101906001600160f81b031916908160001a905350611cc8600a8661265c565b9450611c68565b600082611cdc8584611cf2565b14949350505050565b61093d8383836001611d66565b600081815b8451811015611d5e576000858281518110611d1457611d1461244e565b60200260200101519050808311611d3a5760008381526020829052604090209250611d4b565b600081815260208490526040902092505b5080611d568161247a565b915050611cf7565b509392505050565b6000546001600160a01b038516611d8f57604051622e076360e81b815260040160405180910390fd5b83611dad5760405163b562e8dd60e01b815260040160405180910390fd5b6001600160a01b038516600081815260056020908152604080832080546fffffffffffffffffffffffffffffffff1981166001600160401b038083168c0181169182176801000000000000000067ffffffffffffffff1990941690921783900481168c01811690920217909155858452600490925290912080546001600160e01b031916909217600160a01b429092169190910217905580808501838015611e5e57506001600160a01b0387163b15155b15611ee7575b60405182906001600160a01b038916906000907fddf252ad1be2c89b69c2b068fc378daa952ba7f163c4a11628f55a4df523b3ef908290a4611eaf6000888480600101955088611acb565b611ecc576040516368d2bf6b60e11b815260040160405180910390fd5b80821415611e64578260005414611ee257600080fd5b611f2d565b5b6040516001830192906001600160a01b038916906000907fddf252ad1be2c89b69c2b068fc378daa952ba7f163c4a11628f55a4df523b3ef908290a480821415611ee8575b50600055611931565b828054611f42906123de565b90600052602060002090601f016020900481019282611f645760008555611faa565b82601f10611f7d57805160ff1916838001178555611faa565b82800160010185558215611faa579182015b82811115611faa578251825591602001919060010190611f8f565b50611fb6929150611fba565b5090565b5b80821115611fb65760008155600101611fbb565b6001600160e01b0319811681146116b257600080fd5b600060208284031215611ff757600080fd5b813561128181611fcf565b60005b8381101561201d578181015183820152602001612005565b838111156111125750506000910152565b60008151808452612046816020860160208601612002565b601f01601f19169290920160200192915050565b602081526000611281602083018461202e565b60006020828403121561207f57600080fd5b5035919050565b80356001600160a01b038116811461209d57600080fd5b919050565b600080604083850312156120b557600080fd5b6120be83612086565b946020939093013593505050565b634e487b7160e01b600052604160045260246000fd5b60006001600160401b03808411156120fc576120fc6120cc565b604051601f8501601f19908116603f01168101908282118183101715612124576121246120cc565b8160405280935085815286868601111561213d57600080fd5b858560208301376000602087830101525050509392505050565b60006020828403121561216957600080fd5b81356001600160401b0381111561217f57600080fd5b8201601f8101841361219057600080fd5b611bbb848235602084016120e2565b8035801515811461209d57600080fd5b6000602082840312156121c157600080fd5b6112818261219f565b6000806000606084860312156121df57600080fd5b6121e884612086565b92506121f660208501612086565b9150604084013590509250925092565b60006020828403121561221857600080fd5b61128182612086565b6020808252825182820181905260009190848201906040850190845b818110156122595783518352928401929184019160010161223d565b50909695505050505050565b6000806040838503121561227857600080fd5b61228183612086565b915061228f6020840161219f565b90509250929050565b600080600080608085870312156122ae57600080fd5b6122b785612086565b93506122c560208601612086565b92506040850135915060608501356001600160401b038111156122e757600080fd5b8501601f810187136122f857600080fd5b612307878235602084016120e2565b91505092959194509250565b60008060006040848603121561232857600080fd5b8335925060208401356001600160401b038082111561234657600080fd5b818601915086601f83011261235a57600080fd5b81358181111561236957600080fd5b8760208260051b850101111561237e57600080fd5b6020830194508093505050509250925092565b600080604083850312156123a457600080fd5b6123ad83612086565b915061228f60208401612086565b600080604083850312156123ce57600080fd5b8235915061228f60208401612086565b600181811c908216806123f257607f821691505b6020821081141561241357634e487b7160e01b600052602260045260246000fd5b50919050565b6020808252818101527f4f776e61626c653a2063616c6c6572206973206e6f7420746865206f776e6572604082015260600190565b634e487b7160e01b600052603260045260246000fd5b634e487b7160e01b600052601160045260246000fd5b600060001982141561248e5761248e612464565b5060010190565b602080825260149082015273496e76616c6964206d696e7420616d6f756e742160601b604082015260600190565b600082198211156124d6576124d6612464565b500190565b6020808252601490820152734d617820737570706c792065786365656465642160601b604082015260600190565b600081600019048311821515161561252357612523612464565b500290565b60008451602061253b8285838a01612002565b85519184019161254e8184848a01612002565b8554920191600090600181811c908083168061256b57607f831692505b85831081141561258957634e487b7160e01b85526022600452602485fd5b80801561259d57600181146125ae576125db565b60ff198516885283880195506125db565b60008b81526020902060005b858110156125d35781548a8201529084019088016125ba565b505083880195505b50939b9a5050505050505050505050565b6001600160a01b038581168252841660208201526040810183905260806060820181905260009061261f9083018461202e565b9695505050505050565b60006020828403121561263b57600080fd5b815161128181611fcf565b634e487b7160e01b600052601260045260246000fd5b60008261266b5761266b612646565b500490565b60008282101561268257612682612464565b500390565b60008261269657612696612646565b50069056fea264697066735822122087056673f4227a29df734ba62fcfaa1f3e0676055b4dddcdb156d86cd5c0b1ff64736f6c63430008090033",
    "linkReferences": {},
    "deployedLinkReferences": {}
}